{
  "_format": "hh-sol-artifact-1",
  "contractName": "Voting",
  "sourceName": "contracts/Voting.sol",
  "abi": [
    {
      "inputs": [],
      "stateMutability": "nonpayable",
      "type": "constructor"
    },
    {
      "anonymous": false,
      "inputs": [
        {
          "indexed": true,
          "internalType": "uint256",
          "name": "candidateId",
          "type": "uint256"
        },
        {
          "indexed": false,
          "internalType": "string",
          "name": "age",
          "type": "string"
        },
        {
          "indexed": true,
          "internalType": "string",
          "name": "name",
          "type": "string"
        },
        {
          "indexed": false,
          "internalType": "string",
          "name": "image",
          "type": "string"
        },
        {
          "indexed": true,
          "internalType": "uint256",
          "name": "voteCount",
          "type": "uint256"
        },
        {
          "indexed": false,
          "internalType": "address",
          "name": "_address",
          "type": "address"
        },
        {
          "indexed": false,
          "internalType": "string",
          "name": "ipfs",
          "type": "string"
        }
      ],
      "name": "CandidateCreate",
      "type": "event"
    },
    {
      "anonymous": false,
      "inputs": [
        {
          "indexed": true,
          "internalType": "uint256",
          "name": "voterId",
          "type": "uint256"
        },
        {
          "indexed": true,
          "internalType": "string",
          "name": "name",
          "type": "string"
        },
        {
          "indexed": false,
          "internalType": "string",
          "name": "image",
          "type": "string"
        },
        {
          "indexed": false,
          "internalType": "address",
          "name": "_address",
          "type": "address"
        },
        {
          "indexed": false,
          "internalType": "uint256",
          "name": "allowed",
          "type": "uint256"
        },
        {
          "indexed": true,
          "internalType": "bool",
          "name": "voted",
          "type": "bool"
        },
        {
          "indexed": false,
          "internalType": "uint256",
          "name": "vote",
          "type": "uint256"
        },
        {
          "indexed": false,
          "internalType": "string",
          "name": "ipfs",
          "type": "string"
        }
      ],
      "name": "voterCreated",
      "type": "event"
    },
    {
      "inputs": [
        {
          "internalType": "address",
          "name": "",
          "type": "address"
        }
      ],
      "name": "Candidates",
      "outputs": [
        {
          "internalType": "uint256",
          "name": "candidateId",
          "type": "uint256"
        },
        {
          "internalType": "string",
          "name": "age",
          "type": "string"
        },
        {
          "internalType": "string",
          "name": "name",
          "type": "string"
        },
        {
          "internalType": "string",
          "name": "image",
          "type": "string"
        },
        {
          "internalType": "uint256",
          "name": "voteCount",
          "type": "uint256"
        },
        {
          "internalType": "address",
          "name": "_address",
          "type": "address"
        },
        {
          "internalType": "string",
          "name": "ipfs",
          "type": "string"
        }
      ],
      "stateMutability": "view",
      "type": "function"
    },
    {
      "inputs": [],
      "name": "_candidateId",
      "outputs": [
        {
          "internalType": "uint256",
          "name": "",
          "type": "uint256"
        }
      ],
      "stateMutability": "view",
      "type": "function"
    },
    {
      "inputs": [],
      "name": "_voterId",
      "outputs": [
        {
          "internalType": "uint256",
          "name": "",
          "type": "uint256"
        }
      ],
      "stateMutability": "view",
      "type": "function"
    },
    {
      "inputs": [
        {
          "internalType": "uint256",
          "name": "",
          "type": "uint256"
        }
      ],
      "name": "candidatesAddress",
      "outputs": [
        {
          "internalType": "address",
          "name": "",
          "type": "address"
        }
      ],
      "stateMutability": "view",
      "type": "function"
    },
    {
      "inputs": [
        {
          "internalType": "address",
          "name": "_address",
          "type": "address"
        },
        {
          "internalType": "string",
          "name": "_name",
          "type": "string"
        },
        {
          "internalType": "string",
          "name": "_image",
          "type": "string"
        },
        {
          "internalType": "string",
          "name": "_ipfs",
          "type": "string"
        }
      ],
      "name": "createVoters",
      "outputs": [],
      "stateMutability": "nonpayable",
      "type": "function"
    },
    {
      "inputs": [
        {
          "internalType": "address",
          "name": "_address",
          "type": "address"
        }
      ],
      "name": "getCandidateData",
      "outputs": [
        {
          "internalType": "uint256",
          "name": "",
          "type": "uint256"
        },
        {
          "internalType": "string",
          "name": "",
          "type": "string"
        },
        {
          "internalType": "string",
          "name": "",
          "type": "string"
        },
        {
          "internalType": "string",
          "name": "",
          "type": "string"
        },
        {
          "internalType": "uint256",
          "name": "",
          "type": "uint256"
        },
        {
          "internalType": "address",
          "name": "",
          "type": "address"
        },
        {
          "internalType": "string",
          "name": "",
          "type": "string"
        }
      ],
      "stateMutability": "view",
      "type": "function"
    },
    {
      "inputs": [],
      "name": "getCandidateLength",
      "outputs": [
        {
          "internalType": "uint256",
          "name": "",
          "type": "uint256"
        }
      ],
      "stateMutability": "view",
      "type": "function"
    },
    {
      "inputs": [],
      "name": "getCandidatesAddress",
      "outputs": [
        {
          "internalType": "address[]",
          "name": "",
          "type": "address[]"
        }
      ],
      "stateMutability": "view",
      "type": "function"
    },
    {
      "inputs": [],
      "name": "getVotedVotersList",
      "outputs": [
        {
          "internalType": "address[]",
          "name": "",
          "type": "address[]"
        }
      ],
      "stateMutability": "view",
      "type": "function"
    },
    {
      "inputs": [
        {
          "internalType": "address",
          "name": "_address",
          "type": "address"
        }
      ],
      "name": "getVoterData",
      "outputs": [
        {
          "internalType": "uint256",
          "name": "",
          "type": "uint256"
        },
        {
          "internalType": "string",
          "name": "",
          "type": "string"
        },
        {
          "internalType": "string",
          "name": "",
          "type": "string"
        },
        {
          "internalType": "address",
          "name": "",
          "type": "address"
        },
        {
          "internalType": "uint256",
          "name": "",
          "type": "uint256"
        },
        {
          "internalType": "bool",
          "name": "",
          "type": "bool"
        },
        {
          "internalType": "string",
          "name": "",
          "type": "string"
        }
      ],
      "stateMutability": "view",
      "type": "function"
    },
    {
      "inputs": [],
      "name": "getVotersLength",
      "outputs": [
        {
          "internalType": "uint256",
          "name": "",
          "type": "uint256"
        }
      ],
      "stateMutability": "view",
      "type": "function"
    },
    {
      "inputs": [],
      "name": "getVotersList",
      "outputs": [
        {
          "internalType": "address[]",
          "name": "",
          "type": "address[]"
        }
      ],
      "stateMutability": "view",
      "type": "function"
    },
    {
      "inputs": [
        {
          "internalType": "address",
          "name": "_address",
          "type": "address"
        },
        {
          "internalType": "string",
          "name": "_age",
          "type": "string"
        },
        {
          "internalType": "string",
          "name": "_image",
          "type": "string"
        },
        {
          "internalType": "string",
          "name": "_name",
          "type": "string"
        },
        {
          "internalType": "string",
          "name": "_ipfs",
          "type": "string"
        }
      ],
      "name": "setCandidate",
      "outputs": [],
      "stateMutability": "nonpayable",
      "type": "function"
    },
    {
      "inputs": [
        {
          "internalType": "address",
          "name": "_candidateAddress",
          "type": "address"
        },
        {
          "internalType": "uint256",
          "name": "_candidateVoteId",
          "type": "uint256"
        }
      ],
      "name": "vote",
      "outputs": [],
      "stateMutability": "nonpayable",
      "type": "function"
    },
    {
      "inputs": [],
      "name": "voteOrganizer",
      "outputs": [
        {
          "internalType": "address",
          "name": "",
          "type": "address"
        }
      ],
      "stateMutability": "view",
      "type": "function"
    },
    {
      "inputs": [
        {
          "internalType": "uint256",
          "name": "",
          "type": "uint256"
        }
      ],
      "name": "votedVoters",
      "outputs": [
        {
          "internalType": "address",
          "name": "",
          "type": "address"
        }
      ],
      "stateMutability": "view",
      "type": "function"
    },
    {
      "inputs": [
        {
          "internalType": "uint256",
          "name": "",
          "type": "uint256"
        }
      ],
      "name": "votersAddress",
      "outputs": [
        {
          "internalType": "address",
          "name": "",
          "type": "address"
        }
      ],
      "stateMutability": "view",
      "type": "function"
    }
  ],
  "bytecode": "0x6080604052348015600f57600080fd5b5033600260006101000a81548173ffffffffffffffffffffffffffffffffffffffff021916908373ffffffffffffffffffffffffffffffffffffffff1602179055506125b7806100606000396000f3fe608060405234801561001057600080fd5b506004361061010b5760003560e01c80638fb4cd80116100a2578063bc86f38511610071578063bc86f385146102da578063c91ec712146102f8578063de2237d314610314578063f39f05f714610332578063f7522a83146103685761010b565b80638fb4cd801461024a578063a2b94dce14610280578063a73889671461029e578063b9be3152146102bc5761010b565b80634f111f1a116100de5780634f111f1a146101b05780635f1125ed146101ce5780635f74bbde146101fe5780637831ffb31461021a5761010b565b806313182dce146101105780631923c3ef1461012e5780632a466ac71461014a57806343242daa14610180575b600080fd5b610118610386565b604051610125919061191f565b60405180910390f35b61014860048036038101906101439190611ac7565b610414565b005b610164600480360381019061015f9190611b82565b6106dc565b6040516101779796959493929190611c56565b60405180910390f35b61019a60048036038101906101959190611d0d565b610b22565b6040516101a79190611d3a565b60405180910390f35b6101b8610b61565b6040516101c5919061191f565b60405180910390f35b6101e860048036038101906101e39190611d0d565b610bef565b6040516101f59190611d3a565b60405180910390f35b61021860048036038101906102139190611d55565b610c2e565b005b610234600480360381019061022f9190611d0d565b610e77565b6040516102419190611d3a565b60405180910390f35b610264600480360381019061025f9190611b82565b610eb6565b6040516102779796959493929190611db0565b60405180910390f35b61028861127e565b6040516102959190611d3a565b60405180910390f35b6102a66112a4565b6040516102b39190611e34565b60405180910390f35b6102c46112aa565b6040516102d19190611e34565b60405180910390f35b6102e26112b0565b6040516102ef919061191f565b60405180910390f35b610312600480360381019061030d9190611e4f565b61133e565b005b61031c611593565b6040516103299190611e34565b60405180910390f35b61034c60048036038101906103479190611b82565b6115a0565b60405161035f9796959493929190611c56565b60405180910390f35b610370611822565b60405161037d9190611e34565b60405180910390f35b6060600680548060200260200160405190810160405280929190818152602001828054801561040a57602002820191906000526020600020905b8160009054906101000a900473ffffffffffffffffffffffffffffffffffffffff1673ffffffffffffffffffffffffffffffffffffffff16815260200190600101908083116103c0575b5050505050905090565b3373ffffffffffffffffffffffffffffffffffffffff16600260009054906101000a900473ffffffffffffffffffffffffffffffffffffffff1673ffffffffffffffffffffffffffffffffffffffff16146104a4576040517f08c379a000000000000000000000000000000000000000000000000000000000815260040161049b90611f86565b60405180910390fd5b6000808154809291906104b690611fd5565b91905055506000805490506000600760008773ffffffffffffffffffffffffffffffffffffffff1673ffffffffffffffffffffffffffffffffffffffff1681526020019081526020016000209050600081600401541461054b576040517f08c379a000000000000000000000000000000000000000000000000000000000815260040161054290612069565b60405180910390fd5b818160000181905550848160010190816105659190612295565b50838160020190816105779190612295565b50858160030160006101000a81548173ffffffffffffffffffffffffffffffffffffffff021916908373ffffffffffffffffffffffffffffffffffffffff16021790555060018160040181905550828160060190816105d69190612295565b5060008160050160006101000a81548160ff0219169083151502179055506103e881600701819055506005869080600181540180825580915050600190039060005260206000200160009091909190916101000a81548173ffffffffffffffffffffffffffffffffffffffff021916908373ffffffffffffffffffffffffffffffffffffffff1602179055508060050160009054906101000a900460ff1615158560405161068491906123a3565b6040518091039020837fa82760a4fb77b1af9728c15d96987c3f10b4f156d752048393e8518ae42a4a6e878a866004015487600701548a6040516106cc9594939291906123ba565b60405180910390a4505050505050565b600060608060606000806060600460008973ffffffffffffffffffffffffffffffffffffffff1673ffffffffffffffffffffffffffffffffffffffff16815260200190815260200160002060000154600460008a73ffffffffffffffffffffffffffffffffffffffff1673ffffffffffffffffffffffffffffffffffffffff168152602001908152602001600020600101600460008b73ffffffffffffffffffffffffffffffffffffffff1673ffffffffffffffffffffffffffffffffffffffff168152602001908152602001600020600201600460008c73ffffffffffffffffffffffffffffffffffffffff1673ffffffffffffffffffffffffffffffffffffffff168152602001908152602001600020600301600460008d73ffffffffffffffffffffffffffffffffffffffff1673ffffffffffffffffffffffffffffffffffffffff16815260200190815260200160002060040154600460008e73ffffffffffffffffffffffffffffffffffffffff1673ffffffffffffffffffffffffffffffffffffffff16815260200190815260200160002060050160009054906101000a900473ffffffffffffffffffffffffffffffffffffffff16600460008f73ffffffffffffffffffffffffffffffffffffffff1673ffffffffffffffffffffffffffffffffffffffff1681526020019081526020016000206006018580546108e5906120b8565b80601f0160208091040260200160405190810160405280929190818152602001828054610911906120b8565b801561095e5780601f106109335761010080835404028352916020019161095e565b820191906000526020600020905b81548152906001019060200180831161094157829003601f168201915b50505050509550848054610971906120b8565b80601f016020809104026020016040519081016040528092919081815260200182805461099d906120b8565b80156109ea5780601f106109bf576101008083540402835291602001916109ea565b820191906000526020600020905b8154815290600101906020018083116109cd57829003601f168201915b505050505094508380546109fd906120b8565b80601f0160208091040260200160405190810160405280929190818152602001828054610a29906120b8565b8015610a765780601f10610a4b57610100808354040283529160200191610a76565b820191906000526020600020905b815481529060010190602001808311610a5957829003601f168201915b50505050509350808054610a89906120b8565b80601f0160208091040260200160405190810160405280929190818152602001828054610ab5906120b8565b8015610b025780601f10610ad757610100808354040283529160200191610b02565b820191906000526020600020905b815481529060010190602001808311610ae557829003601f168201915b505050505090509650965096509650965096509650919395979092949650565b60058181548110610b3257600080fd5b906000526020600020016000915054906101000a900473ffffffffffffffffffffffffffffffffffffffff1681565b60606003805480602002602001604051908101604052809291908181526020018280548015610be557602002820191906000526020600020905b8160009054906101000a900473ffffffffffffffffffffffffffffffffffffffff1673ffffffffffffffffffffffffffffffffffffffff1681526020019060010190808311610b9b575b5050505050905090565b60038181548110610bff57600080fd5b906000526020600020016000915054906101000a900473ffffffffffffffffffffffffffffffffffffffff1681565b6001600760003373ffffffffffffffffffffffffffffffffffffffff1673ffffffffffffffffffffffffffffffffffffffff1681526020019081526020016000206004015414610cb3576040517f08c379a0000000000000000000000000000000000000000000000000000000008152600401610caa90612467565b60405180910390fd5b60001515600760003373ffffffffffffffffffffffffffffffffffffffff1673ffffffffffffffffffffffffffffffffffffffff16815260200190815260200160002060050160009054906101000a900460ff16151514610d49576040517f08c379a0000000000000000000000000000000000000000000000000000000008152600401610d40906124d3565b60405180910390fd5b6000600760003373ffffffffffffffffffffffffffffffffffffffff1673ffffffffffffffffffffffffffffffffffffffff168152602001908152602001600020905060018160050160006101000a81548160ff0219169083151502179055508181600701819055506006339080600181540180825580915050600190039060005260206000200160009091909190916101000a81548173ffffffffffffffffffffffffffffffffffffffff021916908373ffffffffffffffffffffffffffffffffffffffff1602179055508060040154600460008573ffffffffffffffffffffffffffffffffffffffff1673ffffffffffffffffffffffffffffffffffffffff1681526020019081526020016000206004016000828254610e6b91906124f3565b92505081905550505050565b60068181548110610e8757600080fd5b906000526020600020016000915054906101000a900473ffffffffffffffffffffffffffffffffffffffff1681565b600060608060008060006060600760008973ffffffffffffffffffffffffffffffffffffffff1673ffffffffffffffffffffffffffffffffffffffff16815260200190815260200160002060000154600760008a73ffffffffffffffffffffffffffffffffffffffff1673ffffffffffffffffffffffffffffffffffffffff168152602001908152602001600020600101600760008b73ffffffffffffffffffffffffffffffffffffffff1673ffffffffffffffffffffffffffffffffffffffff168152602001908152602001600020600201600760008c73ffffffffffffffffffffffffffffffffffffffff1673ffffffffffffffffffffffffffffffffffffffff16815260200190815260200160002060030160009054906101000a900473ffffffffffffffffffffffffffffffffffffffff16600760008d73ffffffffffffffffffffffffffffffffffffffff1673ffffffffffffffffffffffffffffffffffffffff16815260200190815260200160002060040154600760008e73ffffffffffffffffffffffffffffffffffffffff1673ffffffffffffffffffffffffffffffffffffffff16815260200190815260200160002060050160009054906101000a900460ff16600760008f73ffffffffffffffffffffffffffffffffffffffff1673ffffffffffffffffffffffffffffffffffffffff1681526020019081526020016000206006018580546110cd906120b8565b80601f01602080910402602001604051908101604052809291908181526020018280546110f9906120b8565b80156111465780601f1061111b57610100808354040283529160200191611146565b820191906000526020600020905b81548152906001019060200180831161112957829003601f168201915b50505050509550848054611159906120b8565b80601f0160208091040260200160405190810160405280929190818152602001828054611185906120b8565b80156111d25780601f106111a7576101008083540402835291602001916111d2565b820191906000526020600020905b8154815290600101906020018083116111b557829003601f168201915b505050505094508080546111e5906120b8565b80601f0160208091040260200160405190810160405280929190818152602001828054611211906120b8565b801561125e5780601f106112335761010080835404028352916020019161125e565b820191906000526020600020905b81548152906001019060200180831161124157829003601f168201915b505050505090509650965096509650965096509650919395979092949650565b600260009054906101000a900473ffffffffffffffffffffffffffffffffffffffff1681565b60015481565b60005481565b6060600580548060200260200160405190810160405280929190818152602001828054801561133457602002820191906000526020600020905b8160009054906101000a900473ffffffffffffffffffffffffffffffffffffffff1673ffffffffffffffffffffffffffffffffffffffff16815260200190600101908083116112ea575b5050505050905090565b6001600081548092919061135190611fd5565b9190505550600060015490503373ffffffffffffffffffffffffffffffffffffffff16600260009054906101000a900473ffffffffffffffffffffffffffffffffffffffff1673ffffffffffffffffffffffffffffffffffffffff16146113ed576040517f08c379a00000000000000000000000000000000000000000000000000000000081526004016113e490611f86565b60405180910390fd5b6000600460008873ffffffffffffffffffffffffffffffffffffffff1673ffffffffffffffffffffffffffffffffffffffff16815260200190815260200160002090508181600001819055508581600101908161144a9190612295565b508381600201908161145c9190612295565b508481600301908161146e9190612295565b50828160060190816114809190612295565b50868160050160006101000a81548173ffffffffffffffffffffffffffffffffffffffff021916908373ffffffffffffffffffffffffffffffffffffffff160217905550600081600401819055506003879080600181540180825580915050600190039060005260206000200160009091909190916101000a81548173ffffffffffffffffffffffffffffffffffffffff021916908373ffffffffffffffffffffffffffffffffffffffff16021790555080600401548460405161154491906123a3565b6040518091039020837fd297f12b256bb8485a6013fb5e302017018123e99a0ebb20756c09e1707b4b9089898c896040516115829493929190612527565b60405180910390a450505050505050565b6000600580549050905090565b60046020528060005260406000206000915090508060000154908060010180546115c9906120b8565b80601f01602080910402602001604051908101604052809291908181526020018280546115f5906120b8565b80156116425780601f1061161757610100808354040283529160200191611642565b820191906000526020600020905b81548152906001019060200180831161162557829003601f168201915b505050505090806002018054611657906120b8565b80601f0160208091040260200160405190810160405280929190818152602001828054611683906120b8565b80156116d05780601f106116a5576101008083540402835291602001916116d0565b820191906000526020600020905b8154815290600101906020018083116116b357829003601f168201915b5050505050908060030180546116e5906120b8565b80601f0160208091040260200160405190810160405280929190818152602001828054611711906120b8565b801561175e5780601f106117335761010080835404028352916020019161175e565b820191906000526020600020905b81548152906001019060200180831161174157829003601f168201915b5050505050908060040154908060050160009054906101000a900473ffffffffffffffffffffffffffffffffffffffff169080600601805461179f906120b8565b80601f01602080910402602001604051908101604052809291908181526020018280546117cb906120b8565b80156118185780601f106117ed57610100808354040283529160200191611818565b820191906000526020600020905b8154815290600101906020018083116117fb57829003601f168201915b5050505050905087565b6000600380549050905090565b600081519050919050565b600082825260208201905092915050565b6000819050602082019050919050565b600073ffffffffffffffffffffffffffffffffffffffff82169050919050565b60006118868261185b565b9050919050565b6118968161187b565b82525050565b60006118a8838361188d565b60208301905092915050565b6000602082019050919050565b60006118cc8261182f565b6118d6818561183a565b93506118e18361184b565b8060005b838110156119125781516118f9888261189c565b9750611904836118b4565b9250506001810190506118e5565b5085935050505092915050565b6000602082019050818103600083015261193981846118c1565b905092915050565b6000604051905090565b600080fd5b600080fd5b61195e8161187b565b811461196957600080fd5b50565b60008135905061197b81611955565b92915050565b600080fd5b600080fd5b6000601f19601f8301169050919050565b7f4e487b7100000000000000000000000000000000000000000000000000000000600052604160045260246000fd5b6119d48261198b565b810181811067ffffffffffffffff821117156119f3576119f261199c565b5b80604052505050565b6000611a06611941565b9050611a1282826119cb565b919050565b600067ffffffffffffffff821115611a3257611a3161199c565b5b611a3b8261198b565b9050602081019050919050565b82818337600083830152505050565b6000611a6a611a6584611a17565b6119fc565b905082815260208101848484011115611a8657611a85611986565b5b611a91848285611a48565b509392505050565b600082601f830112611aae57611aad611981565b5b8135611abe848260208601611a57565b91505092915050565b60008060008060808587031215611ae157611ae061194b565b5b6000611aef8782880161196c565b945050602085013567ffffffffffffffff811115611b1057611b0f611950565b5b611b1c87828801611a99565b935050604085013567ffffffffffffffff811115611b3d57611b3c611950565b5b611b4987828801611a99565b925050606085013567ffffffffffffffff811115611b6a57611b69611950565b5b611b7687828801611a99565b91505092959194509250565b600060208284031215611b9857611b9761194b565b5b6000611ba68482850161196c565b91505092915050565b6000819050919050565b611bc281611baf565b82525050565b600081519050919050565b600082825260208201905092915050565b60005b83811015611c02578082015181840152602081019050611be7565b60008484015250505050565b6000611c1982611bc8565b611c238185611bd3565b9350611c33818560208601611be4565b611c3c8161198b565b840191505092915050565b611c508161187b565b82525050565b600060e082019050611c6b600083018a611bb9565b8181036020830152611c7d8189611c0e565b90508181036040830152611c918188611c0e565b90508181036060830152611ca58187611c0e565b9050611cb46080830186611bb9565b611cc160a0830185611c47565b81810360c0830152611cd38184611c0e565b905098975050505050505050565b611cea81611baf565b8114611cf557600080fd5b50565b600081359050611d0781611ce1565b92915050565b600060208284031215611d2357611d2261194b565b5b6000611d3184828501611cf8565b91505092915050565b6000602082019050611d4f6000830184611c47565b92915050565b60008060408385031215611d6c57611d6b61194b565b5b6000611d7a8582860161196c565b9250506020611d8b85828601611cf8565b9150509250929050565b60008115159050919050565b611daa81611d95565b82525050565b600060e082019050611dc5600083018a611bb9565b8181036020830152611dd78189611c0e565b90508181036040830152611deb8188611c0e565b9050611dfa6060830187611c47565b611e076080830186611bb9565b611e1460a0830185611da1565b81810360c0830152611e268184611c0e565b905098975050505050505050565b6000602082019050611e496000830184611bb9565b92915050565b600080600080600060a08688031215611e6b57611e6a61194b565b5b6000611e798882890161196c565b955050602086013567ffffffffffffffff811115611e9a57611e99611950565b5b611ea688828901611a99565b945050604086013567ffffffffffffffff811115611ec757611ec6611950565b5b611ed388828901611a99565b935050606086013567ffffffffffffffff811115611ef457611ef3611950565b5b611f0088828901611a99565b925050608086013567ffffffffffffffff811115611f2157611f20611950565b5b611f2d88828901611a99565b9150509295509295909350565b7f736f72727920796f7520617265206e6f7420746865206f7267616e697a657200600082015250565b6000611f70601f83611bd3565b9150611f7b82611f3a565b602082019050919050565b60006020820190508181036000830152611f9f81611f63565b9050919050565b7f4e487b7100000000000000000000000000000000000000000000000000000000600052601160045260246000fd5b6000611fe082611baf565b91507fffffffffffffffffffffffffffffffffffffffffffffffffffffffffffffffff820361201257612011611fa6565b5b600182019050919050565b7f796f7520617265206e6f7420616c6c6f77656420746f20766f74650000000000600082015250565b6000612053601b83611bd3565b915061205e8261201d565b602082019050919050565b6000602082019050818103600083015261208281612046565b9050919050565b7f4e487b7100000000000000000000000000000000000000000000000000000000600052602260045260246000fd5b600060028204905060018216806120d057607f821691505b6020821081036120e3576120e2612089565b5b50919050565b60008190508160005260206000209050919050565b60006020601f8301049050919050565b600082821b905092915050565b60006008830261214b7fffffffffffffffffffffffffffffffffffffffffffffffffffffffffffffffff8261210e565b612155868361210e565b95508019841693508086168417925050509392505050565b6000819050919050565b600061219261218d61218884611baf565b61216d565b611baf565b9050919050565b6000819050919050565b6121ac83612177565b6121c06121b882612199565b84845461211b565b825550505050565b600090565b6121d56121c8565b6121e08184846121a3565b505050565b5b81811015612204576121f96000826121cd565b6001810190506121e6565b5050565b601f8211156122495761221a816120e9565b612223846120fe565b81016020851015612232578190505b61224661223e856120fe565b8301826121e5565b50505b505050565b600082821c905092915050565b600061226c6000198460080261224e565b1980831691505092915050565b6000612285838361225b565b9150826002028217905092915050565b61229e82611bc8565b67ffffffffffffffff8111156122b7576122b661199c565b5b6122c182546120b8565b6122cc828285612208565b600060209050601f8311600181146122ff57600084156122ed578287015190505b6122f78582612279565b86555061235f565b601f19841661230d866120e9565b60005b8281101561233557848901518255600182019150602085019450602081019050612310565b86831015612352578489015161234e601f89168261225b565b8355505b6001600288020188555050505b505050505050565b600081905092915050565b600061237d82611bc8565b6123878185612367565b9350612397818560208601611be4565b80840191505092915050565b60006123af8284612372565b915081905092915050565b600060a08201905081810360008301526123d48188611c0e565b90506123e36020830187611c47565b6123f06040830186611bb9565b6123fd6060830185611bb9565b818103608083015261240f8184611c0e565b90509695505050505050565b7f596f7520617265206e6f7420616c6c6f77656420746f20766f74650000000000600082015250565b6000612451601b83611bd3565b915061245c8261241b565b602082019050919050565b6000602082019050818103600083015261248081612444565b9050919050565b7f596f75206861766520616c726561647920766f74656400000000000000000000600082015250565b60006124bd601683611bd3565b91506124c882612487565b602082019050919050565b600060208201905081810360008301526124ec816124b0565b9050919050565b60006124fe82611baf565b915061250983611baf565b925082820190508082111561252157612520611fa6565b5b92915050565b600060808201905081810360008301526125418187611c0e565b905081810360208301526125558186611c0e565b90506125646040830185611c47565b81810360608301526125768184611c0e565b90509594505050505056fea2646970667358221220eed54fb89fe93a847ac2039b905cd325d3f57f89f527cfdfa552a4397010302a64736f6c634300081b0033",
  "linkReferences": {},
  "deployedLinkReferences": {}
}